{
  "_format": "hh-sol-artifact-1",
  "contractName": "Escrow",
  "sourceName": "contracts/Escrow.sol",
  "abi": [
    {
      "inputs": [],
      "name": "ReentrancyGuardReentrantCall",
      "type": "error"
    },
    {
      "anonymous": false,
      "inputs": [
        {
          "indexed": true,
          "internalType": "uint256",
          "name": "id",
          "type": "uint256"
        }
      ],
      "name": "Expired",
      "type": "event"
    },
    {
      "anonymous": false,
      "inputs": [
        {
          "indexed": true,
          "internalType": "uint256",
          "name": "id",
          "type": "uint256"
        },
        {
          "indexed": true,
          "internalType": "address",
          "name": "buyer",
          "type": "address"
        },
        {
          "indexed": true,
          "internalType": "address",
          "name": "seller",
          "type": "address"
        },
        {
          "indexed": false,
          "internalType": "uint256",
          "name": "amount",
          "type": "uint256"
        },
        {
          "indexed": false,
          "internalType": "uint256",
          "name": "deadline",
          "type": "uint256"
        }
      ],
      "name": "Funded",
      "type": "event"
    },
    {
      "anonymous": false,
      "inputs": [
        {
          "indexed": true,
          "internalType": "uint256",
          "name": "id",
          "type": "uint256"
        },
        {
          "indexed": true,
          "internalType": "address",
          "name": "buyer",
          "type": "address"
        }
      ],
      "name": "Refunded",
      "type": "event"
    },
    {
      "anonymous": false,
      "inputs": [
        {
          "indexed": true,
          "internalType": "uint256",
          "name": "id",
          "type": "uint256"
        },
        {
          "indexed": true,
          "internalType": "address",
          "name": "seller",
          "type": "address"
        }
      ],
      "name": "Released",
      "type": "event"
    },
    {
      "inputs": [
        {
          "internalType": "address",
          "name": "seller",
          "type": "address"
        },
        {
          "internalType": "uint256",
          "name": "timeoutSecs",
          "type": "uint256"
        }
      ],
      "name": "createEscrow",
      "outputs": [
        {
          "internalType": "uint256",
          "name": "id",
          "type": "uint256"
        }
      ],
      "stateMutability": "payable",
      "type": "function"
    },
    {
      "inputs": [
        {
          "internalType": "uint256",
          "name": "",
          "type": "uint256"
        }
      ],
      "name": "deals",
      "outputs": [
        {
          "internalType": "address",
          "name": "buyer",
          "type": "address"
        },
        {
          "internalType": "address",
          "name": "seller",
          "type": "address"
        },
        {
          "internalType": "uint256",
          "name": "amount",
          "type": "uint256"
        },
        {
          "internalType": "uint256",
          "name": "deadline",
          "type": "uint256"
        },
        {
          "internalType": "enum Escrow.Status",
          "name": "status",
          "type": "uint8"
        }
      ],
      "stateMutability": "view",
      "type": "function"
    },
    {
      "inputs": [
        {
          "internalType": "uint256",
          "name": "id",
          "type": "uint256"
        }
      ],
      "name": "expire",
      "outputs": [],
      "stateMutability": "nonpayable",
      "type": "function"
    },
    {
      "inputs": [
        {
          "internalType": "uint256",
          "name": "id",
          "type": "uint256"
        }
      ],
      "name": "getDeal",
      "outputs": [
        {
          "components": [
            {
              "internalType": "address",
              "name": "buyer",
              "type": "address"
            },
            {
              "internalType": "address",
              "name": "seller",
              "type": "address"
            },
            {
              "internalType": "uint256",
              "name": "amount",
              "type": "uint256"
            },
            {
              "internalType": "uint256",
              "name": "deadline",
              "type": "uint256"
            },
            {
              "internalType": "enum Escrow.Status",
              "name": "status",
              "type": "uint8"
            }
          ],
          "internalType": "struct Escrow.Deal",
          "name": "",
          "type": "tuple"
        }
      ],
      "stateMutability": "view",
      "type": "function"
    },
    {
      "inputs": [],
      "name": "nextId",
      "outputs": [
        {
          "internalType": "uint256",
          "name": "",
          "type": "uint256"
        }
      ],
      "stateMutability": "view",
      "type": "function"
    },
    {
      "inputs": [
        {
          "internalType": "uint256",
          "name": "id",
          "type": "uint256"
        }
      ],
      "name": "refundToBuyer",
      "outputs": [],
      "stateMutability": "nonpayable",
      "type": "function"
    },
    {
      "inputs": [
        {
          "internalType": "uint256",
          "name": "id",
          "type": "uint256"
        }
      ],
      "name": "releaseToSeller",
      "outputs": [],
      "stateMutability": "nonpayable",
      "type": "function"
    }
  ],
  "bytecode": "0x608060405234801561001057600080fd5b506001600055610b1f806100256000396000f3fe6080604052600436106100705760003560e01c806361b8ce8c1161004e57806361b8ce8c1461012c57806382fd5bac14610142578063b4050fc81461016f578063bf81bf431461018f57600080fd5b806303988f841461007557806333e23311146100e95780634614874e1461010b575b600080fd5b34801561008157600080fd5b506100cf6100903660046109b4565b6002602081905260009182526040909120805460018201549282015460038301546004909301546001600160a01b039283169490921692909160ff1685565b6040516100e0959493929190610a05565b60405180910390f35b3480156100f557600080fd5b506101096101043660046109b4565b6101af565b005b61011e610119366004610a42565b61035c565b6040519081526020016100e0565b34801561013857600080fd5b5061011e60015481565b34801561014e57600080fd5b5061016261015d3660046109b4565b610539565b6040516100e09190610a7a565b34801561017b57600080fd5b5061010961018a3660046109b4565b6105ed565b34801561019b57600080fd5b506101096101aa3660046109b4565b610844565b6101b761098a565b6000818152600260205260409020600160048083015460ff16908111156101e0576101e06109cd565b1461021f5760405162461bcd60e51b815260206004820152600a602482015269139bdd08199d5b99195960b21b60448201526064015b60405180910390fd5b80546001600160a01b031633146102655760405162461bcd60e51b815260206004820152600a60248201526927b7363c90313abcb2b960b11b6044820152606401610216565b60048101805460ff191660029081179091556001820154908201546040516000926001600160a01b031691908381818185875af1925050503d80600081146102c9576040519150601f19603f3d011682016040523d82523d6000602084013e6102ce565b606091505b50509050806103115760405162461bcd60e51b815260206004820152600f60248201526e151c985b9cd9995c8819985a5b1959608a1b6044820152606401610216565b60018201546040516001600160a01b039091169084907f4d436de77f1139fda664b657c73ad6c3bde4a1984d3aabeab7c3998556b93b6390600090a350506103596001600055565b50565b600061036661098a565b600034116103a45760405162461bcd60e51b815260206004820152600b60248201526a16995c9bc8185b5bdd5b9d60aa1b6044820152606401610216565b6001600160a01b0383166103eb5760405162461bcd60e51b815260206004820152600e60248201526d24b73b30b634b21039b2b63632b960911b6044820152606401610216565b60015490508060016103fd9190610ac8565b600155600061040c8342610ac8565b90506040518060a00160405280336001600160a01b03168152602001856001600160a01b0316815260200134815260200182815260200160016004811115610456576104566109cd565b9052600083815260026020818152604092839020845181546001600160a01b039182166001600160a01b0319918216178355928601516001808401805492909316919094161790559284015191830191909155606083015160038301556080830151600480840180549293909260ff19169184908111156104d9576104d96109cd565b02179055505060408051348152602081018490526001600160a01b0387169250339185917f3de0656051f4ef26996b911a785eedd70ee60d363876cdeaa84f5090e2d38b7f910160405180910390a4506105336001600055565b92915050565b6105686040805160a0810182526000808252602082018190529181018290526060810182905290608082015290565b600082815260026020818152604092839020835160a08101855281546001600160a01b03908116825260018301541692810192909252918201549281019290925260038101546060830152600480820154608084019160ff909116908111156105d3576105d36109cd565b60048111156105e4576105e46109cd565b90525092915050565b6105f561098a565b6000818152600260205260409020600160048083015460ff169081111561061e5761061e6109cd565b1480610640575060048181015460ff168181111561063e5761063e6109cd565b145b61067d5760405162461bcd60e51b815260206004820152600e60248201526d496e76616c69642073746174757360901b6044820152606401610216565b600160048083015460ff1690811115610698576106986109cd565b036106ff5780546001600160a01b03163314806106c1575060018101546001600160a01b031633145b6106fa5760405162461bcd60e51b815260206004820152600a6024820152694f6e6c7920706172747960b01b6044820152606401610216565b610758565b80546001600160a01b031633146107585760405162461bcd60e51b815260206004820152601760248201527f4f6e6c79206275796572206166746572206578706972650000000000000000006044820152606401610216565b60048101805460ff19166003179055805460028201546040516000926001600160a01b031691908381818185875af1925050503d80600081146107b7576040519150601f19603f3d011682016040523d82523d6000602084013e6107bc565b606091505b50509050806107ff5760405162461bcd60e51b815260206004820152600f60248201526e151c985b9cd9995c8819985a5b1959608a1b6044820152606401610216565b81546040516001600160a01b039091169084907f16e7a7a8fd7c51d6b4d059d6d7eea946bff398eee64dd1894af645edd23d502b90600090a350506103596001600055565b6000818152600260205260409020600160048083015460ff169081111561086d5761086d6109cd565b146108a75760405162461bcd60e51b815260206004820152600a6024820152694e6f742061637469766560b01b6044820152606401610216565b806003015442116108ee5760405162461bcd60e51b81526020600482015260116024820152704e6f74207061737420646561646c696e6560781b6044820152606401610216565b80546001600160a01b0316331480610912575060018101546001600160a01b031633145b61094b5760405162461bcd60e51b815260206004820152600a6024820152694f6e6c7920706172747960b01b6044820152606401610216565b6004818101805460ff1916909117905560405182907ff80dbaea4785589e52984ca36a31de106adc77759539a5c7d92883bf49692fe990600090a25050565b6002600054036109ad57604051633ee5aeb560e01b815260040160405180910390fd5b6002600055565b6000602082840312156109c657600080fd5b5035919050565b634e487b7160e01b600052602160045260246000fd5b60058110610a0157634e487b7160e01b600052602160045260246000fd5b9052565b6001600160a01b03868116825285166020820152604081018490526060810183905260a08101610a3860808301846109e3565b9695505050505050565b60008060408385031215610a5557600080fd5b82356001600160a01b0381168114610a6c57600080fd5b946020939093013593505050565b81516001600160a01b03908116825260208084015190911690820152604080830151908201526060808301519082015260808083015160a0830191610ac1908401826109e3565b5092915050565b8082018082111561053357634e487b7160e01b600052601160045260246000fdfea264697066735822122033bffbcc3e6ada6384e6686dcc19584153d50bc981bf02b585452f0b690c7f7364736f6c63430008140033",
  "linkReferences": {},
  "deployedLinkReferences": {}
}